{
  "_format": "hh-sol-artifact-1",
  "contractName": "DomainRegistry",
  "sourceName": "contracts/DomainRegistry.sol",
  "abi": [
    {
      "inputs": [],
      "name": "InvalidInitialization",
      "type": "error"
    },
    {
      "inputs": [],
      "name": "NotInitializing",
      "type": "error"
    },
    {
      "inputs": [
        {
          "internalType": "address",
          "name": "owner",
          "type": "address"
        }
      ],
      "name": "OwnableInvalidOwner",
      "type": "error"
    },
    {
      "inputs": [
        {
          "internalType": "address",
          "name": "account",
          "type": "address"
        }
      ],
      "name": "OwnableUnauthorizedAccount",
      "type": "error"
    },
    {
      "anonymous": false,
      "inputs": [
        {
          "indexed": true,
          "internalType": "address",
          "name": "sender",
          "type": "address"
        },
        {
          "indexed": true,
          "internalType": "string",
          "name": "domain",
          "type": "string"
        },
        {
          "indexed": false,
          "internalType": "uint256",
          "name": "cost",
          "type": "uint256"
        },
        {
          "indexed": false,
          "internalType": "uint256",
          "name": "finishedAt",
          "type": "uint256"
        }
      ],
      "name": "DomainContinue",
      "type": "event"
    },
    {
      "anonymous": false,
      "inputs": [
        {
          "indexed": true,
          "internalType": "address",
          "name": "sender",
          "type": "address"
        },
        {
          "indexed": true,
          "internalType": "string",
          "name": "domain",
          "type": "string"
        }
      ],
      "name": "DomainRemoved",
      "type": "event"
    },
    {
      "anonymous": false,
      "inputs": [
        {
          "indexed": true,
          "internalType": "address",
          "name": "sender",
          "type": "address"
        },
        {
          "indexed": true,
          "internalType": "string",
          "name": "domain",
          "type": "string"
        },
        {
          "indexed": false,
          "internalType": "uint256",
          "name": "cost",
          "type": "uint256"
        },
        {
          "indexed": false,
          "internalType": "uint256",
          "name": "createdAt",
          "type": "uint256"
        },
        {
          "indexed": false,
          "internalType": "uint256",
          "name": "finishedAt",
          "type": "uint256"
        }
      ],
      "name": "DomainReserved",
      "type": "event"
    },
    {
      "anonymous": false,
      "inputs": [
        {
          "indexed": false,
          "internalType": "uint64",
          "name": "version",
          "type": "uint64"
        }
      ],
      "name": "Initialized",
      "type": "event"
    },
    {
      "anonymous": false,
      "inputs": [
        {
          "indexed": false,
          "internalType": "uint256",
          "name": "mainPrice",
          "type": "uint256"
        }
      ],
      "name": "MainPriceChanged",
      "type": "event"
    },
    {
      "anonymous": false,
      "inputs": [
        {
          "indexed": true,
          "internalType": "address",
          "name": "previousOwner",
          "type": "address"
        },
        {
          "indexed": true,
          "internalType": "address",
          "name": "newOwner",
          "type": "address"
        }
      ],
      "name": "OwnershipTransferred",
      "type": "event"
    },
    {
      "anonymous": false,
      "inputs": [
        {
          "indexed": false,
          "internalType": "uint256",
          "name": "paymentPeriod",
          "type": "uint256"
        }
      ],
      "name": "PaymentPeriodChanged",
      "type": "event"
    },
    {
      "anonymous": false,
      "inputs": [
        {
          "indexed": false,
          "internalType": "address",
          "name": "treasure",
          "type": "address"
        }
      ],
      "name": "TreasureChanged",
      "type": "event"
    },
    {
      "inputs": [
        {
          "internalType": "string",
          "name": "_domain",
          "type": "string"
        }
      ],
      "name": "_onlyFreeDomain",
      "outputs": [
        {
          "internalType": "bool",
          "name": "",
          "type": "bool"
        }
      ],
      "stateMutability": "view",
      "type": "function"
    },
    {
      "inputs": [
        {
          "internalType": "uint256",
          "name": "_mainPrice",
          "type": "uint256"
        }
      ],
      "name": "changeMainPrice",
      "outputs": [],
      "stateMutability": "nonpayable",
      "type": "function"
    },
    {
      "inputs": [
        {
          "internalType": "uint256",
          "name": "_paymentPeriod",
          "type": "uint256"
        }
      ],
      "name": "changePaymentPeriod",
      "outputs": [],
      "stateMutability": "nonpayable",
      "type": "function"
    },
    {
      "inputs": [
        {
          "internalType": "address",
          "name": "_treasure",
          "type": "address"
        }
      ],
      "name": "changeTreasure",
      "outputs": [],
      "stateMutability": "nonpayable",
      "type": "function"
    },
    {
      "inputs": [
        {
          "internalType": "string",
          "name": "_domain",
          "type": "string"
        },
        {
          "internalType": "uint8",
          "name": "_periods",
          "type": "uint8"
        }
      ],
      "name": "continueDomain",
      "outputs": [],
      "stateMutability": "payable",
      "type": "function"
    },
    {
      "inputs": [
        {
          "internalType": "string",
          "name": "_domain",
          "type": "string"
        }
      ],
      "name": "domainInfo",
      "outputs": [
        {
          "components": [
            {
              "internalType": "address",
              "name": "owner",
              "type": "address"
            },
            {
              "internalType": "uint256",
              "name": "createdAt",
              "type": "uint256"
            },
            {
              "internalType": "uint256",
              "name": "finishedAt",
              "type": "uint256"
            }
          ],
          "internalType": "struct DomainRegistry.DomainRecord",
          "name": "",
          "type": "tuple"
        }
      ],
      "stateMutability": "view",
      "type": "function"
    },
    {
      "inputs": [
        {
          "internalType": "string",
          "name": "_domain",
          "type": "string"
        }
      ],
      "name": "domainOwner",
      "outputs": [
        {
          "internalType": "address",
          "name": "",
          "type": "address"
        }
      ],
      "stateMutability": "view",
      "type": "function"
    },
    {
      "inputs": [
        {
          "internalType": "uint256",
          "name": "_mainPrice",
          "type": "uint256"
        },
        {
          "internalType": "address",
          "name": "_treasure",
          "type": "address"
        },
        {
          "internalType": "uint256",
          "name": "_paymentPeriod",
          "type": "uint256"
        }
      ],
      "name": "initialize",
      "outputs": [],
      "stateMutability": "nonpayable",
      "type": "function"
    },
    {
      "inputs": [
        {
          "internalType": "string",
          "name": "_domain",
          "type": "string"
        }
      ],
      "name": "isFreeDomain",
      "outputs": [
        {
          "internalType": "bool",
          "name": "",
          "type": "bool"
        }
      ],
      "stateMutability": "view",
      "type": "function"
    },
    {
      "inputs": [],
      "name": "mainPrice",
      "outputs": [
        {
          "internalType": "uint256",
          "name": "",
          "type": "uint256"
        }
      ],
      "stateMutability": "view",
      "type": "function"
    },
    {
      "inputs": [],
      "name": "owner",
      "outputs": [
        {
          "internalType": "address",
          "name": "",
          "type": "address"
        }
      ],
      "stateMutability": "view",
      "type": "function"
    },
    {
      "inputs": [],
      "name": "paymentPeriod",
      "outputs": [
        {
          "internalType": "uint256",
          "name": "",
          "type": "uint256"
        }
      ],
      "stateMutability": "view",
      "type": "function"
    },
    {
      "inputs": [],
      "name": "renounceOwnership",
      "outputs": [],
      "stateMutability": "nonpayable",
      "type": "function"
    },
    {
      "inputs": [
        {
          "internalType": "string",
          "name": "_domain",
          "type": "string"
        },
        {
          "internalType": "uint8",
          "name": "_periods",
          "type": "uint8"
        }
      ],
      "name": "reserveDomain",
      "outputs": [],
      "stateMutability": "payable",
      "type": "function"
    },
    {
      "inputs": [
        {
          "internalType": "address",
          "name": "newOwner",
          "type": "address"
        }
      ],
      "name": "transferOwnership",
      "outputs": [],
      "stateMutability": "nonpayable",
      "type": "function"
    },
    {
      "inputs": [],
      "name": "treasure",
      "outputs": [
        {
          "internalType": "address",
          "name": "",
          "type": "address"
        }
      ],
      "stateMutability": "view",
      "type": "function"
    }
  ],
  "bytecode": "0x608060405234801561001057600080fd5b50612396806100206000396000f3fe6080604052600436106100f35760003560e01c806380741bb81161008a578063b78b6c1211610059578063b78b6c12146102fa578063e520fc7e14610337578063f2fde38b14610362578063fffb51831461038b576100f3565b806380741bb8146102405780638da5cb5b14610269578063a5dc93e514610294578063b77a0793146102d1576100f3565b80632bf70df5116100c65780632bf70df51461019857806335cb5101146101d55780633cc3794514610200578063715018a614610229576100f3565b806310b0624a146100f857806318d95092146101235780631bea7f691461016057806326741bf71461017c575b600080fd5b34801561010457600080fd5b5061010d6103b4565b60405161011a9190611717565b60405180910390f35b34801561012f57600080fd5b5061014a6004803603810190610145919061188c565b6103ba565b6040516101579190611916565b60405180910390f35b61017a6004803603810190610175919061196a565b610405565b005b6101966004803603810190610191919061196a565b6105a2565b005b3480156101a457600080fd5b506101bf60048036038101906101ba919061188c565b61088b565b6040516101cc91906119e1565b60405180910390f35b3480156101e157600080fd5b506101ea61092f565b6040516101f79190611717565b60405180910390f35b34801561020c57600080fd5b5061022760048036038101906102229190611a28565b610935565b005b34801561023557600080fd5b5061023e61097e565b005b34801561024c57600080fd5b5061026760048036038101906102629190611a81565b610992565b005b34801561027557600080fd5b5061027e610a83565b60405161028b9190611916565b60405180910390f35b3480156102a057600080fd5b506102bb60048036038101906102b6919061188c565b610abb565b6040516102c89190611b0e565b60405180910390f35b3480156102dd57600080fd5b506102f860048036038101906102f39190611a28565b610ba6565b005b34801561030657600080fd5b50610321600480360381019061031c919061188c565b610c32565b60405161032e91906119e1565b60405180910390f35b34801561034357600080fd5b5061034c610c4c565b6040516103599190611916565b60405180910390f35b34801561036e57600080fd5b5061038960048036038101906103849190611a81565b610c70565b005b34801561039757600080fd5b506103b260048036038101906103ad9190611b29565b610cf6565b005b60025481565b60006004826040516103cc9190611bed565b908152602001604051809103902060000160009054906101000a900473ffffffffffffffffffffffffffffffffffffffff169050919050565b600360009054906101000a900460ff1615610455576040517f08c379a000000000000000000000000000000000000000000000000000000000815260040161044c90611c61565b60405180910390fd5b6001600360006101000a81548160ff02191690831515021790555061047982610f8e565b915061048482611087565b60008160ff16116104ca576040517f08c379a00000000000000000000000000000000000000000000000000000000081526004016104c190611ccd565b60405180910390fd5b60006004836040516104dc9190611bed565b908152602001604051809103902090506000816002015490506000806105056001548685611140565b91509150818460020181905550856040516105209190611bed565b6040518091039020610530611297565b73ffffffffffffffffffffffffffffffffffffffff167f62227bee141a2157e2a6140e5aeb9ba496fe386261aee58a9af447ed73f6f2418385604051610577929190611ced565b60405180910390a3505050506000600360006101000a81548160ff0219169083151502179055505050565b600360009054906101000a900460ff16156105f2576040517f08c379a00000000000000000000000000000000000000000000000000000000081526004016105e990611c61565b60405180910390fd5b6001600360006101000a81548160ff02191690831515021790555061061682610f8e565b91506106218261088b565b610660576040517f08c379a000000000000000000000000000000000000000000000000000000000815260040161065790611d62565b60405180910390fd5b60008160ff16116106a6576040517f08c379a000000000000000000000000000000000000000000000000000000000815260040161069d90611ccd565b60405180910390fd5b60006106b18361129f565b9050600081511115610707576106c68161088b565b15610706576040517f08c379a00000000000000000000000000000000000000000000000000000000081526004016106fd90611dce565b60405180910390fd5b5b600042905060008061071c6001548685611140565b915091506107286116c7565b610730611297565b816000019073ffffffffffffffffffffffffffffffffffffffff16908173ffffffffffffffffffffffffffffffffffffffff168152505083816020018181525050828160400181815250508060048860405161078c9190611bed565b908152602001604051809103902060008201518160000160006101000a81548173ffffffffffffffffffffffffffffffffffffffff021916908373ffffffffffffffffffffffffffffffffffffffff1602179055506020820151816001015560408201518160020155905050866040516108069190611bed565b6040518091039020610816611297565b73ffffffffffffffffffffffffffffffffffffffff167f9bdeba7a24127a0fbc1b37cb17011e0877cb70520c8c9276b3718ec16e78931b84878760405161085f93929190611dee565b60405180910390a350505050506000600360006101000a81548160ff0219169083151502179055505050565b60008073ffffffffffffffffffffffffffffffffffffffff166004836040516108b49190611bed565b908152602001604051809103902060000160009054906101000a900473ffffffffffffffffffffffffffffffffffffffff1673ffffffffffffffffffffffffffffffffffffffff16148061092857506004826040516109139190611bed565b90815260200160405180910390206002015442115b9050919050565b60015481565b61093d611387565b806001819055507f8d3c3804fb8bdf7984f3c94d6f18edd48ae9c4eb1807b30b79cda7f089ca6de0816040516109739190611717565b60405180910390a150565b610986611387565b610990600061140e565b565b61099a611387565b600073ffffffffffffffffffffffffffffffffffffffff168173ffffffffffffffffffffffffffffffffffffffff1603610a09576040517f08c379a0000000000000000000000000000000000000000000000000000000008152600401610a0090611e71565b60405180910390fd5b806000806101000a81548173ffffffffffffffffffffffffffffffffffffffff021916908373ffffffffffffffffffffffffffffffffffffffff1602179055507f71aa29b44191fa7bd4c7353eb96d28f25155708809dcb48a35973ce050aba00181604051610a789190611916565b60405180910390a150565b600080610a8e6114e5565b90508060000160009054906101000a900473ffffffffffffffffffffffffffffffffffffffff1691505090565b610ac36116c7565b610acc8261088b565b15610b0c576040517f08c379a0000000000000000000000000000000000000000000000000000000008152600401610b0390611edd565b60405180910390fd5b600482604051610b1c9190611bed565b90815260200160405180910390206040518060600160405290816000820160009054906101000a900473ffffffffffffffffffffffffffffffffffffffff1673ffffffffffffffffffffffffffffffffffffffff1673ffffffffffffffffffffffffffffffffffffffff168152602001600182015481526020016002820154815250509050919050565b610bae611387565b60008111610bf1576040517f08c379a0000000000000000000000000000000000000000000000000000000008152600401610be890611f49565b60405180910390fd5b806002819055507fac70fa84b99718ef396fbd91a25cd78ae57922141b1366c0e8226f59f3c920ef81604051610c279190611717565b60405180910390a150565b6000610c45610c4083610f8e565b61088b565b9050919050565b60008054906101000a900473ffffffffffffffffffffffffffffffffffffffff1681565b610c78611387565b600073ffffffffffffffffffffffffffffffffffffffff168173ffffffffffffffffffffffffffffffffffffffff1603610cea5760006040517f1e4fbdf7000000000000000000000000000000000000000000000000000000008152600401610ce19190611916565b60405180910390fd5b610cf38161140e565b50565b6000610d0061150d565b905060008160000160089054906101000a900460ff1615905060008260000160009054906101000a900467ffffffffffffffff1690506000808267ffffffffffffffff16148015610d4e5750825b9050600060018367ffffffffffffffff16148015610d83575060003073ffffffffffffffffffffffffffffffffffffffff163b145b905081158015610d91575080155b15610dc8576040517ff92ee8a900000000000000000000000000000000000000000000000000000000815260040160405180910390fd5b60018560000160006101000a81548167ffffffffffffffff021916908367ffffffffffffffff1602179055508315610e185760018560000160086101000a81548160ff0219169083151502179055505b600073ffffffffffffffffffffffffffffffffffffffff168773ffffffffffffffffffffffffffffffffffffffff1603610e87576040517f08c379a0000000000000000000000000000000000000000000000000000000008152600401610e7e90611e71565b60405180910390fd5b60008603610eca576040517f08c379a0000000000000000000000000000000000000000000000000000000008152600401610ec190611f49565b60405180910390fd5b87600181905550866000806101000a81548173ffffffffffffffffffffffffffffffffffffffff021916908373ffffffffffffffffffffffffffffffffffffffff16021790555085600281905550610f28610f23611297565b611535565b8315610f845760008560000160086101000a81548160ff0219169083151502179055507fc7f505b2f371ae2175ee4913f4499e1f2633a7b5936321eed1cdaeb6115181d26001604051610f7b9190611fc2565b60405180910390a15b5050505050505050565b6060600082905060006040518060400160405280600381526020017f3a2f2f0000000000000000000000000000000000000000000000000000000000815250905060008251905060008251905080821061107b5760005b8183610ff1919061200c565b8110156110795760006001905060005b8381101561104557600060208801518285011a6020880151831a8082149250505080611031576000925050611045565b50808061103d90612040565b915050611001565b5080156110655761106286848461105c9190612088565b86611549565b97505b50808061107190612040565b915050610fe5565b505b85945050505050919050565b61108f611297565b73ffffffffffffffffffffffffffffffffffffffff166004826040516110b59190611bed565b908152602001604051809103902060000160009054906101000a900473ffffffffffffffffffffffffffffffffffffffff1673ffffffffffffffffffffffffffffffffffffffff161461113d576040517f08c379a000000000000000000000000000000000000000000000000000000000815260040161113490612108565b60405180910390fd5b50565b60008060008460ff16866111549190612128565b905080341015611199576040517f08c379a0000000000000000000000000000000000000000000000000000000008152600401611190906121b6565b60405180910390fd5b60008560ff166002546111ac9190612128565b856111b79190612088565b905060008060009054906101000a900473ffffffffffffffffffffffffffffffffffffffff1673ffffffffffffffffffffffffffffffffffffffff163460405161120090612207565b60006040518083038185875af1925050503d806000811461123d576040519150601f19603f3d011682016040523d82523d6000602084013e611242565b606091505b5050905080611286576040517f08c379a000000000000000000000000000000000000000000000000000000000815260040161127d90612268565b60405180910390fd5b818394509450505050935093915050565b600033905090565b6060600082905060007f2e00000000000000000000000000000000000000000000000000000000000000905060008251905060008103611314576040517f08c379a000000000000000000000000000000000000000000000000000000000815260040161130b906122d4565b60405180910390fd5b60405180602001604052806000815250935060005b8181101561137e5760006020850151821a8460001a80821492505050801561136a576113628560018461135c9190612088565b85611549565b95505061137e565b50808061137690612040565b915050611329565b50505050919050565b61138f611297565b73ffffffffffffffffffffffffffffffffffffffff166113ad610a83565b73ffffffffffffffffffffffffffffffffffffffff161461140c576113d0611297565b6040517f118cdaa70000000000000000000000000000000000000000000000000000000081526004016114039190611916565b60405180910390fd5b565b60006114186114e5565b905060008160000160009054906101000a900473ffffffffffffffffffffffffffffffffffffffff169050828260000160006101000a81548173ffffffffffffffffffffffffffffffffffffffff021916908373ffffffffffffffffffffffffffffffffffffffff1602179055508273ffffffffffffffffffffffffffffffffffffffff168173ffffffffffffffffffffffffffffffffffffffff167f8be0079c531659141344cd1fd0a4f28419497f9722a3daafe3b4186f6b6457e060405160405180910390a3505050565b60007f9016d09d72d40fdae2fd8ceac6b6234c7706214fd39c1cd1e609a0528c199300905090565b60007ff0c57e16840df040f15088dc2f81fe391c3923bec73e23a9662efc9c229c6a00905090565b61153d6115e1565b61154681611621565b50565b60608183111561158e576040517f08c379a000000000000000000000000000000000000000000000000000000000815260040161158590612340565b60405180910390fd5b6000838361159c919061200c565b9050604051915080825260208201845b848110156115ce576001810187015182536001820191506001810190506115ac565b5081602001830160405250509392505050565b6115e96116a7565b61161f576040517fd7e6bcf800000000000000000000000000000000000000000000000000000000815260040160405180910390fd5b565b6116296115e1565b600073ffffffffffffffffffffffffffffffffffffffff168173ffffffffffffffffffffffffffffffffffffffff160361169b5760006040517f1e4fbdf70000000000000000000000000000000000000000000000000000000081526004016116929190611916565b60405180910390fd5b6116a48161140e565b50565b60006116b161150d565b60000160089054906101000a900460ff16905090565b6040518060600160405280600073ffffffffffffffffffffffffffffffffffffffff16815260200160008152602001600081525090565b6000819050919050565b611711816116fe565b82525050565b600060208201905061172c6000830184611708565b92915050565b6000604051905090565b600080fd5b600080fd5b600080fd5b600080fd5b6000601f19601f8301169050919050565b7f4e487b7100000000000000000000000000000000000000000000000000000000600052604160045260246000fd5b61179982611750565b810181811067ffffffffffffffff821117156117b8576117b7611761565b5b80604052505050565b60006117cb611732565b90506117d78282611790565b919050565b600067ffffffffffffffff8211156117f7576117f6611761565b5b61180082611750565b9050602081019050919050565b82818337600083830152505050565b600061182f61182a846117dc565b6117c1565b90508281526020810184848401111561184b5761184a61174b565b5b61185684828561180d565b509392505050565b600082601f83011261187357611872611746565b5b813561188384826020860161181c565b91505092915050565b6000602082840312156118a2576118a161173c565b5b600082013567ffffffffffffffff8111156118c0576118bf611741565b5b6118cc8482850161185e565b91505092915050565b600073ffffffffffffffffffffffffffffffffffffffff82169050919050565b6000611900826118d5565b9050919050565b611910816118f5565b82525050565b600060208201905061192b6000830184611907565b92915050565b600060ff82169050919050565b61194781611931565b811461195257600080fd5b50565b6000813590506119648161193e565b92915050565b600080604083850312156119815761198061173c565b5b600083013567ffffffffffffffff81111561199f5761199e611741565b5b6119ab8582860161185e565b92505060206119bc85828601611955565b9150509250929050565b60008115159050919050565b6119db816119c6565b82525050565b60006020820190506119f660008301846119d2565b92915050565b611a05816116fe565b8114611a1057600080fd5b50565b600081359050611a22816119fc565b92915050565b600060208284031215611a3e57611a3d61173c565b5b6000611a4c84828501611a13565b91505092915050565b611a5e816118f5565b8114611a6957600080fd5b50565b600081359050611a7b81611a55565b92915050565b600060208284031215611a9757611a9661173c565b5b6000611aa584828501611a6c565b91505092915050565b611ab7816118f5565b82525050565b611ac6816116fe565b82525050565b606082016000820151611ae26000850182611aae565b506020820151611af56020850182611abd565b506040820151611b086040850182611abd565b50505050565b6000606082019050611b236000830184611acc565b92915050565b600080600060608486031215611b4257611b4161173c565b5b6000611b5086828701611a13565b9350506020611b6186828701611a6c565b9250506040611b7286828701611a13565b9150509250925092565b600081519050919050565b600081905092915050565b60005b83811015611bb0578082015181840152602081019050611b95565b60008484015250505050565b6000611bc782611b7c565b611bd18185611b87565b9350611be1818560208601611b92565b80840191505092915050565b6000611bf98284611bbc565b915081905092915050565b600082825260208201905092915050565b7f4e6f2072652d656e7472616e6379000000000000000000000000000000000000600082015250565b6000611c4b600e83611c04565b9150611c5682611c15565b602082019050919050565b60006020820190508181036000830152611c7a81611c3e565b9050919050565b7f77726f6e6720706572696f647300000000000000000000000000000000000000600082015250565b6000611cb7600d83611c04565b9150611cc282611c81565b602082019050919050565b60006020820190508181036000830152611ce681611caa565b9050919050565b6000604082019050611d026000830185611708565b611d0f6020830184611708565b9392505050565b7f6e6f74206672656520646f6d61696e0000000000000000000000000000000000600082015250565b6000611d4c600f83611c04565b9150611d5782611d16565b602082019050919050565b60006020820190508181036000830152611d7b81611d3f565b9050919050565b7f706172656e7420646f6d61696e20697320667265650000000000000000000000600082015250565b6000611db8601583611c04565b9150611dc382611d82565b602082019050919050565b60006020820190508181036000830152611de781611dab565b9050919050565b6000606082019050611e036000830186611708565b611e106020830185611708565b611e1d6040830184611708565b949350505050565b7f77726f6e67206164647265737300000000000000000000000000000000000000600082015250565b6000611e5b600d83611c04565b9150611e6682611e25565b602082019050919050565b60006020820190508181036000830152611e8a81611e4e565b9050919050565b7f6672656520646f6d61696e000000000000000000000000000000000000000000600082015250565b6000611ec7600b83611c04565b9150611ed282611e91565b602082019050919050565b60006020820190508181036000830152611ef681611eba565b9050919050565b7f77726f6e67207061796d656e7420706572696f64000000000000000000000000600082015250565b6000611f33601483611c04565b9150611f3e82611efd565b602082019050919050565b60006020820190508181036000830152611f6281611f26565b9050919050565b6000819050919050565b600067ffffffffffffffff82169050919050565b6000819050919050565b6000611fac611fa7611fa284611f69565b611f87565b611f73565b9050919050565b611fbc81611f91565b82525050565b6000602082019050611fd76000830184611fb3565b92915050565b7f4e487b7100000000000000000000000000000000000000000000000000000000600052601160045260246000fd5b6000612017826116fe565b9150612022836116fe565b925082820390508181111561203a57612039611fdd565b5b92915050565b600061204b826116fe565b91507fffffffffffffffffffffffffffffffffffffffffffffffffffffffffffffffff820361207d5761207c611fdd565b5b600182019050919050565b6000612093826116fe565b915061209e836116fe565b92508282019050808211156120b6576120b5611fdd565b5b92915050565b7f77726f6e672073656e6465720000000000000000000000000000000000000000600082015250565b60006120f2600c83611c04565b91506120fd826120bc565b602082019050919050565b60006020820190508181036000830152612121816120e5565b9050919050565b6000612133826116fe565b915061213e836116fe565b925082820261214c816116fe565b9150828204841483151761216357612162611fdd565b5b5092915050565b7f77726f6e672076616c7565000000000000000000000000000000000000000000600082015250565b60006121a0600b83611c04565b91506121ab8261216a565b602082019050919050565b600060208201905081810360008301526121cf81612193565b9050919050565b600081905092915050565b50565b60006121f16000836121d6565b91506121fc826121e1565b600082019050919050565b6000612212826121e4565b9150819050919050565b7f6661696c656420746f2073656e64204574686572000000000000000000000000600082015250565b6000612252601483611c04565b915061225d8261221c565b602082019050919050565b6000602082019050818103600083015261228181612245565b9050919050565b7f656d70747920646f6d61696e0000000000000000000000000000000000000000600082015250565b60006122be600c83611c04565b91506122c982612288565b602082019050919050565b600060208201905081810360008301526122ed816122b1565b9050919050565b7f496e76616c696420737461727420616e6420656e6420696e6469636573000000600082015250565b600061232a601d83611c04565b9150612335826122f4565b602082019050919050565b600060208201905081810360008301526123598161231d565b905091905056fea2646970667358221220f92ac660d462e883d31a5ce82a4233d0fd729c97ddf9b095be3d66898369373864736f6c63430008140033",
  "linkReferences": {},
  "deployedLinkReferences": {}
}