{
  "_format": "hh-sol-artifact-1",
  "contractName": "DomainRegistry",
  "sourceName": "contracts/DomainRegistry.sol",
  "abi": [
    {
      "inputs": [],
      "name": "InvalidInitialization",
      "type": "error"
    },
    {
      "inputs": [],
      "name": "NotInitializing",
      "type": "error"
    },
    {
      "inputs": [
        {
          "internalType": "address",
          "name": "owner",
          "type": "address"
        }
      ],
      "name": "OwnableInvalidOwner",
      "type": "error"
    },
    {
      "inputs": [
        {
          "internalType": "address",
          "name": "account",
          "type": "address"
        }
      ],
      "name": "OwnableUnauthorizedAccount",
      "type": "error"
    },
    {
      "anonymous": false,
      "inputs": [
        {
          "indexed": true,
          "internalType": "address",
          "name": "sender",
          "type": "address"
        },
        {
          "indexed": true,
          "internalType": "string",
          "name": "domain",
          "type": "string"
        },
        {
          "indexed": false,
          "internalType": "uint256",
          "name": "cost",
          "type": "uint256"
        },
        {
          "indexed": false,
          "internalType": "uint256",
          "name": "finishedAt",
          "type": "uint256"
        }
      ],
      "name": "DomainContinue",
      "type": "event"
    },
    {
      "anonymous": false,
      "inputs": [
        {
          "indexed": true,
          "internalType": "address",
          "name": "sender",
          "type": "address"
        },
        {
          "indexed": true,
          "internalType": "string",
          "name": "domain",
          "type": "string"
        }
      ],
      "name": "DomainRemoved",
      "type": "event"
    },
    {
      "anonymous": false,
      "inputs": [
        {
          "indexed": true,
          "internalType": "address",
          "name": "sender",
          "type": "address"
        },
        {
          "indexed": true,
          "internalType": "string",
          "name": "domain",
          "type": "string"
        },
        {
          "indexed": false,
          "internalType": "uint256",
          "name": "cost",
          "type": "uint256"
        },
        {
          "indexed": false,
          "internalType": "uint256",
          "name": "createdAt",
          "type": "uint256"
        },
        {
          "indexed": false,
          "internalType": "uint256",
          "name": "finishedAt",
          "type": "uint256"
        }
      ],
      "name": "DomainReserved",
      "type": "event"
    },
    {
      "anonymous": false,
      "inputs": [
        {
          "indexed": false,
          "internalType": "uint64",
          "name": "version",
          "type": "uint64"
        }
      ],
      "name": "Initialized",
      "type": "event"
    },
    {
      "anonymous": false,
      "inputs": [
        {
          "indexed": false,
          "internalType": "uint256",
          "name": "mainPrice",
          "type": "uint256"
        }
      ],
      "name": "MainPriceChanged",
      "type": "event"
    },
    {
      "anonymous": false,
      "inputs": [
        {
          "indexed": true,
          "internalType": "address",
          "name": "previousOwner",
          "type": "address"
        },
        {
          "indexed": true,
          "internalType": "address",
          "name": "newOwner",
          "type": "address"
        }
      ],
      "name": "OwnershipTransferred",
      "type": "event"
    },
    {
      "anonymous": false,
      "inputs": [
        {
          "indexed": false,
          "internalType": "uint256",
          "name": "paymentPeriod",
          "type": "uint256"
        }
      ],
      "name": "PaymentPeriodChanged",
      "type": "event"
    },
    {
      "anonymous": false,
      "inputs": [
        {
          "indexed": false,
          "internalType": "address",
          "name": "treasure",
          "type": "address"
        }
      ],
      "name": "TreasureChanged",
      "type": "event"
    },
    {
      "inputs": [
        {
          "internalType": "string",
          "name": "_domain",
          "type": "string"
        }
      ],
      "name": "_onlyFreeDomain",
      "outputs": [
        {
          "internalType": "bool",
          "name": "",
          "type": "bool"
        }
      ],
      "stateMutability": "view",
      "type": "function"
    },
    {
      "inputs": [
        {
          "internalType": "uint256",
          "name": "_mainPrice",
          "type": "uint256"
        }
      ],
      "name": "changeMainPrice",
      "outputs": [],
      "stateMutability": "nonpayable",
      "type": "function"
    },
    {
      "inputs": [
        {
          "internalType": "uint256",
          "name": "_paymentPeriod",
          "type": "uint256"
        }
      ],
      "name": "changePaymentPeriod",
      "outputs": [],
      "stateMutability": "nonpayable",
      "type": "function"
    },
    {
      "inputs": [
        {
          "internalType": "address",
          "name": "_treasure",
          "type": "address"
        }
      ],
      "name": "changeTreasure",
      "outputs": [],
      "stateMutability": "nonpayable",
      "type": "function"
    },
    {
      "inputs": [
        {
          "internalType": "string",
          "name": "_domain",
          "type": "string"
        },
        {
          "internalType": "uint8",
          "name": "_periods",
          "type": "uint8"
        }
      ],
      "name": "continueDomain",
      "outputs": [],
      "stateMutability": "payable",
      "type": "function"
    },
    {
      "inputs": [
        {
          "internalType": "string",
          "name": "_domain",
          "type": "string"
        }
      ],
      "name": "domainInfo",
      "outputs": [
        {
          "components": [
            {
              "internalType": "address",
              "name": "owner",
              "type": "address"
            },
            {
              "internalType": "uint256",
              "name": "createdAt",
              "type": "uint256"
            },
            {
              "internalType": "uint256",
              "name": "finishedAt",
              "type": "uint256"
            },
            {
              "internalType": "uint256[47]",
              "name": "__gap",
              "type": "uint256[47]"
            }
          ],
          "internalType": "struct DomainRegistry.DomainRecord",
          "name": "",
          "type": "tuple"
        }
      ],
      "stateMutability": "view",
      "type": "function"
    },
    {
      "inputs": [
        {
          "internalType": "string",
          "name": "_domain",
          "type": "string"
        }
      ],
      "name": "domainOwner",
      "outputs": [
        {
          "internalType": "address",
          "name": "",
          "type": "address"
        }
      ],
      "stateMutability": "view",
      "type": "function"
    },
    {
      "inputs": [
        {
          "internalType": "uint256",
          "name": "_mainPrice",
          "type": "uint256"
        },
        {
          "internalType": "address",
          "name": "_treasure",
          "type": "address"
        },
        {
          "internalType": "uint256",
          "name": "_paymentPeriod",
          "type": "uint256"
        }
      ],
      "name": "initialize",
      "outputs": [],
      "stateMutability": "nonpayable",
      "type": "function"
    },
    {
      "inputs": [
        {
          "internalType": "string",
          "name": "_domain",
          "type": "string"
        }
      ],
      "name": "isFreeDomain",
      "outputs": [
        {
          "internalType": "bool",
          "name": "",
          "type": "bool"
        }
      ],
      "stateMutability": "view",
      "type": "function"
    },
    {
      "inputs": [],
      "name": "mainPrice",
      "outputs": [
        {
          "internalType": "uint256",
          "name": "",
          "type": "uint256"
        }
      ],
      "stateMutability": "view",
      "type": "function"
    },
    {
      "inputs": [],
      "name": "owner",
      "outputs": [
        {
          "internalType": "address",
          "name": "",
          "type": "address"
        }
      ],
      "stateMutability": "view",
      "type": "function"
    },
    {
      "inputs": [],
      "name": "paymentPeriod",
      "outputs": [
        {
          "internalType": "uint256",
          "name": "",
          "type": "uint256"
        }
      ],
      "stateMutability": "view",
      "type": "function"
    },
    {
      "inputs": [],
      "name": "renounceOwnership",
      "outputs": [],
      "stateMutability": "nonpayable",
      "type": "function"
    },
    {
      "inputs": [
        {
          "internalType": "string",
          "name": "_domain",
          "type": "string"
        },
        {
          "internalType": "uint8",
          "name": "_periods",
          "type": "uint8"
        }
      ],
      "name": "reserveDomain",
      "outputs": [],
      "stateMutability": "payable",
      "type": "function"
    },
    {
      "inputs": [
        {
          "internalType": "address",
          "name": "newOwner",
          "type": "address"
        }
      ],
      "name": "transferOwnership",
      "outputs": [],
      "stateMutability": "nonpayable",
      "type": "function"
    },
    {
      "inputs": [],
      "name": "treasure",
      "outputs": [
        {
          "internalType": "address",
          "name": "",
          "type": "address"
        }
      ],
      "stateMutability": "view",
      "type": "function"
    }
  ],
  "bytecode": "0x60806040523480156200001157600080fd5b5060405162002b1c38038062002b1c833981810160405281019062000037919062000567565b6200004a8383836200005360201b60201c565b5050506200066f565b6000620000656200025d60201b60201c565b905060008160000160089054906101000a900460ff1615905060008260000160009054906101000a900467ffffffffffffffff1690506000808267ffffffffffffffff16148015620000b45750825b9050600060018367ffffffffffffffff16148015620000ea575060003073ffffffffffffffffffffffffffffffffffffffff163b145b905081158015620000f9575080155b1562000131576040517ff92ee8a900000000000000000000000000000000000000000000000000000000815260040160405180910390fd5b60018560000160006101000a81548167ffffffffffffffff021916908367ffffffffffffffff1602179055508315620001825760018560000160086101000a81548160ff0219169083151502179055505b876101f581905550866101f460006101000a81548173ffffffffffffffffffffffffffffffffffffffff021916908373ffffffffffffffffffffffffffffffffffffffff160217905550856101f681905550620001f4620001e86200028560201b60201c565b6200028d60201b60201c565b8315620002535760008560000160086101000a81548160ff0219169083151502179055507fc7f505b2f371ae2175ee4913f4499e1f2633a7b5936321eed1cdaeb6115181d260016040516200024a919062000624565b60405180910390a15b5050505050505050565b60007ff0c57e16840df040f15088dc2f81fe391c3923bec73e23a9662efc9c229c6a00905090565b600033905090565b6200029d620002b160201b60201c565b620002ae81620002fa60201b60201c565b50565b620002c16200039360201b60201c565b620002f8576040517fd7e6bcf800000000000000000000000000000000000000000000000000000000815260040160405180910390fd5b565b6200030a620002b160201b60201c565b600073ffffffffffffffffffffffffffffffffffffffff168173ffffffffffffffffffffffffffffffffffffffff16036200037f5760006040517f1e4fbdf700000000000000000000000000000000000000000000000000000000815260040162000376919062000652565b60405180910390fd5b6200039081620003bb60201b60201c565b50565b6000620003a56200025d60201b60201c565b60000160089054906101000a900460ff16905090565b6000620003cd6200049a60201b60201c565b905060008160000160009054906101000a900473ffffffffffffffffffffffffffffffffffffffff169050828260000160006101000a81548173ffffffffffffffffffffffffffffffffffffffff021916908373ffffffffffffffffffffffffffffffffffffffff1602179055508273ffffffffffffffffffffffffffffffffffffffff168173ffffffffffffffffffffffffffffffffffffffff167f8be0079c531659141344cd1fd0a4f28419497f9722a3daafe3b4186f6b6457e060405160405180910390a3505050565b60007f9016d09d72d40fdae2fd8ceac6b6234c7706214fd39c1cd1e609a0528c199300905090565b600080fd5b6000819050919050565b620004dc81620004c7565b8114620004e857600080fd5b50565b600081519050620004fc81620004d1565b92915050565b600073ffffffffffffffffffffffffffffffffffffffff82169050919050565b60006200052f8262000502565b9050919050565b620005418162000522565b81146200054d57600080fd5b50565b600081519050620005618162000536565b92915050565b600080600060608486031215620005835762000582620004c2565b5b60006200059386828701620004eb565b9350506020620005a68682870162000550565b9250506040620005b986828701620004eb565b9150509250925092565b6000819050919050565b600067ffffffffffffffff82169050919050565b6000819050919050565b60006200060c620006066200060084620005c3565b620005e1565b620005cd565b9050919050565b6200061e81620005eb565b82525050565b60006020820190506200063b600083018462000613565b92915050565b6200064c8162000522565b82525050565b600060208201905062000669600083018462000641565b92915050565b61249d806200067f6000396000f3fe6080604052600436106100f35760003560e01c806380741bb81161008a578063b78b6c1211610059578063b78b6c12146102fa578063e520fc7e14610337578063f2fde38b14610362578063fffb51831461038b576100f3565b806380741bb8146102405780638da5cb5b14610269578063a5dc93e514610294578063b77a0793146102d1576100f3565b80632bf70df5116100c65780632bf70df51461019857806335cb5101146101d55780633cc3794514610200578063715018a614610229576100f3565b806310b0624a146100f857806318d95092146101235780631bea7f691461016057806326741bf71461017c575b600080fd5b34801561010457600080fd5b5061010d6103b4565b60405161011a919061176d565b60405180910390f35b34801561012f57600080fd5b5061014a600480360381019061014591906118e2565b6103bb565b604051610157919061196c565b60405180910390f35b61017a600480360381019061017591906119c0565b610407565b005b610196600480360381019061019191906119c0565b6105a9565b005b3480156101a457600080fd5b506101bf60048036038101906101ba91906118e2565b6108af565b6040516101cc9190611a37565b60405180910390f35b3480156101e157600080fd5b506101ea610955565b6040516101f7919061176d565b60405180910390f35b34801561020c57600080fd5b5061022760048036038101906102229190611a7e565b61095c565b005b34801561023557600080fd5b5061023e6109a6565b005b34801561024c57600080fd5b5061026760048036038101906102629190611ad7565b6109ba565b005b34801561027557600080fd5b5061027e610aad565b60405161028b919061196c565b60405180910390f35b3480156102a057600080fd5b506102bb60048036038101906102b691906118e2565b610ae5565b6040516102c89190611c14565b60405180910390f35b3480156102dd57600080fd5b506102f860048036038101906102f39190611a7e565b610c16565b005b34801561030657600080fd5b50610321600480360381019061031c91906118e2565b610ca3565b60405161032e9190611a37565b60405180910390f35b34801561034357600080fd5b5061034c610cbd565b604051610359919061196c565b60405180910390f35b34801561036e57600080fd5b5061038960048036038101906103849190611ad7565b610ce4565b005b34801561039757600080fd5b506103b260048036038101906103ad9190611c30565b610d6a565b005b6101f65481565b60006101f8826040516103ce9190611cf4565b908152602001604051809103902060000160009054906101000a900473ffffffffffffffffffffffffffffffffffffffff169050919050565b6101f760009054906101000a900460ff1615610458576040517f08c379a000000000000000000000000000000000000000000000000000000000815260040161044f90611d68565b60405180910390fd5b60016101f760006101000a81548160ff02191690831515021790555061047d82610f54565b91506104888261104d565b60008160ff16116104ce576040517f08c379a00000000000000000000000000000000000000000000000000000000081526004016104c590611dd4565b60405180910390fd5b60006101f8836040516104e19190611cf4565b9081526020016040518091039020905060008160020154905060008061050b6101f5548685611107565b91509150818460020181905550856040516105269190611cf4565b6040518091039020610536611260565b73ffffffffffffffffffffffffffffffffffffffff167f62227bee141a2157e2a6140e5aeb9ba496fe386261aee58a9af447ed73f6f241838560405161057d929190611df4565b60405180910390a35050505060006101f760006101000a81548160ff0219169083151502179055505050565b6101f760009054906101000a900460ff16156105fa576040517f08c379a00000000000000000000000000000000000000000000000000000000081526004016105f190611d68565b60405180910390fd5b60016101f760006101000a81548160ff02191690831515021790555061061f82610f54565b915061062a826108af565b610669576040517f08c379a000000000000000000000000000000000000000000000000000000000815260040161066090611e69565b60405180910390fd5b60008160ff16116106af576040517f08c379a00000000000000000000000000000000000000000000000000000000081526004016106a690611dd4565b60405180910390fd5b60006106ba83611268565b9050600081511115610710576106cf816108af565b1561070f576040517f08c379a000000000000000000000000000000000000000000000000000000000815260040161070690611ed5565b60405180910390fd5b5b60004290506000806107266101f5548685611107565b91509150610732611690565b61073a611260565b816000019073ffffffffffffffffffffffffffffffffffffffff16908173ffffffffffffffffffffffffffffffffffffffff16815250508381602001818152505082816040018181525050806101f8886040516107979190611cf4565b908152602001604051809103902060008201518160000160006101000a81548173ffffffffffffffffffffffffffffffffffffffff021916908373ffffffffffffffffffffffffffffffffffffffff160217905550602082015181600101556040820151816002015560608201518160030190602f6108179291906116d4565b50905050866040516108299190611cf4565b6040518091039020610839611260565b73ffffffffffffffffffffffffffffffffffffffff167f9bdeba7a24127a0fbc1b37cb17011e0877cb70520c8c9276b3718ec16e78931b84878760405161088293929190611ef5565b60405180910390a3505050505060006101f760006101000a81548160ff0219169083151502179055505050565b60008073ffffffffffffffffffffffffffffffffffffffff166101f8836040516108d99190611cf4565b908152602001604051809103902060000160009054906101000a900473ffffffffffffffffffffffffffffffffffffffff1673ffffffffffffffffffffffffffffffffffffffff16148061094e57506101f8826040516109399190611cf4565b90815260200160405180910390206002015442115b9050919050565b6101f55481565b610964611350565b806101f5819055507f8d3c3804fb8bdf7984f3c94d6f18edd48ae9c4eb1807b30b79cda7f089ca6de08160405161099b919061176d565b60405180910390a150565b6109ae611350565b6109b860006113d7565b565b6109c2611350565b600073ffffffffffffffffffffffffffffffffffffffff168173ffffffffffffffffffffffffffffffffffffffff1603610a31576040517f08c379a0000000000000000000000000000000000000000000000000000000008152600401610a2890611f78565b60405180910390fd5b806101f460006101000a81548173ffffffffffffffffffffffffffffffffffffffff021916908373ffffffffffffffffffffffffffffffffffffffff1602179055507f71aa29b44191fa7bd4c7353eb96d28f25155708809dcb48a35973ce050aba00181604051610aa2919061196c565b60405180910390a150565b600080610ab86114ae565b90508060000160009054906101000a900473ffffffffffffffffffffffffffffffffffffffff1691505090565b610aed611690565b610af6826108af565b15610b36576040517f08c379a0000000000000000000000000000000000000000000000000000000008152600401610b2d90611fe4565b60405180910390fd5b6101f882604051610b479190611cf4565b90815260200160405180910390206040518060800160405290816000820160009054906101000a900473ffffffffffffffffffffffffffffffffffffffff1673ffffffffffffffffffffffffffffffffffffffff1673ffffffffffffffffffffffffffffffffffffffff168152602001600182015481526020016002820154815260200160038201602f806020026040519081016040528092919082602f8015610c06576020028201915b815481526020019060010190808311610bf2575b5050505050815250509050919050565b610c1e611350565b60008111610c61576040517f08c379a0000000000000000000000000000000000000000000000000000000008152600401610c5890612050565b60405180910390fd5b806101f6819055507fac70fa84b99718ef396fbd91a25cd78ae57922141b1366c0e8226f59f3c920ef81604051610c98919061176d565b60405180910390a150565b6000610cb6610cb183610f54565b6108af565b9050919050565b6101f460009054906101000a900473ffffffffffffffffffffffffffffffffffffffff1681565b610cec611350565b600073ffffffffffffffffffffffffffffffffffffffff168173ffffffffffffffffffffffffffffffffffffffff1603610d5e5760006040517f1e4fbdf7000000000000000000000000000000000000000000000000000000008152600401610d55919061196c565b60405180910390fd5b610d67816113d7565b50565b6000610d746114d6565b905060008160000160089054906101000a900460ff1615905060008260000160009054906101000a900467ffffffffffffffff1690506000808267ffffffffffffffff16148015610dc25750825b9050600060018367ffffffffffffffff16148015610df7575060003073ffffffffffffffffffffffffffffffffffffffff163b145b905081158015610e05575080155b15610e3c576040517ff92ee8a900000000000000000000000000000000000000000000000000000000815260040160405180910390fd5b60018560000160006101000a81548167ffffffffffffffff021916908367ffffffffffffffff1602179055508315610e8c5760018560000160086101000a81548160ff0219169083151502179055505b876101f581905550866101f460006101000a81548173ffffffffffffffffffffffffffffffffffffffff021916908373ffffffffffffffffffffffffffffffffffffffff160217905550856101f681905550610eee610ee9611260565b6114fe565b8315610f4a5760008560000160086101000a81548160ff0219169083151502179055507fc7f505b2f371ae2175ee4913f4499e1f2633a7b5936321eed1cdaeb6115181d26001604051610f4191906120c9565b60405180910390a15b5050505050505050565b6060600082905060006040518060400160405280600381526020017f3a2f2f000000000000000000000000000000000000000000000000000000000081525090506000825190506000825190508082106110415760005b8183610fb79190612113565b81101561103f5760006001905060005b8381101561100b57600060208801518285011a6020880151831a8082149250505080610ff757600092505061100b565b50808061100390612147565b915050610fc7565b50801561102b57611028868484611022919061218f565b86611512565b97505b50808061103790612147565b915050610fab565b505b85945050505050919050565b611055611260565b73ffffffffffffffffffffffffffffffffffffffff166101f88260405161107c9190611cf4565b908152602001604051809103902060000160009054906101000a900473ffffffffffffffffffffffffffffffffffffffff1673ffffffffffffffffffffffffffffffffffffffff1614611104576040517f08c379a00000000000000000000000000000000000000000000000000000000081526004016110fb9061220f565b60405180910390fd5b50565b60008060008460ff168661111b919061222f565b905080341461115f576040517f08c379a0000000000000000000000000000000000000000000000000000000008152600401611156906122bd565b60405180910390fd5b60008560ff166101f654611173919061222f565b8561117e919061218f565b905060006101f460009054906101000a900473ffffffffffffffffffffffffffffffffffffffff1673ffffffffffffffffffffffffffffffffffffffff16346040516111c99061230e565b60006040518083038185875af1925050503d8060008114611206576040519150601f19603f3d011682016040523d82523d6000602084013e61120b565b606091505b505090508061124f576040517f08c379a00000000000000000000000000000000000000000000000000000000081526004016112469061236f565b60405180910390fd5b818394509450505050935093915050565b600033905090565b6060600082905060007f2e000000000000000000000000000000000000000000000000000000000000009050600082519050600081036112dd576040517f08c379a00000000000000000000000000000000000000000000000000000000081526004016112d4906123db565b60405180910390fd5b60405180602001604052806000815250935060005b818110156113475760006020850151821a8460001a8082149250505080156113335761132b85600184611325919061218f565b85611512565b955050611347565b50808061133f90612147565b9150506112f2565b50505050919050565b611358611260565b73ffffffffffffffffffffffffffffffffffffffff16611376610aad565b73ffffffffffffffffffffffffffffffffffffffff16146113d557611399611260565b6040517f118cdaa70000000000000000000000000000000000000000000000000000000081526004016113cc919061196c565b60405180910390fd5b565b60006113e16114ae565b905060008160000160009054906101000a900473ffffffffffffffffffffffffffffffffffffffff169050828260000160006101000a81548173ffffffffffffffffffffffffffffffffffffffff021916908373ffffffffffffffffffffffffffffffffffffffff1602179055508273ffffffffffffffffffffffffffffffffffffffff168173ffffffffffffffffffffffffffffffffffffffff167f8be0079c531659141344cd1fd0a4f28419497f9722a3daafe3b4186f6b6457e060405160405180910390a3505050565b60007f9016d09d72d40fdae2fd8ceac6b6234c7706214fd39c1cd1e609a0528c199300905090565b60007ff0c57e16840df040f15088dc2f81fe391c3923bec73e23a9662efc9c229c6a00905090565b6115066115aa565b61150f816115ea565b50565b606081831115611557576040517f08c379a000000000000000000000000000000000000000000000000000000000815260040161154e90612447565b60405180910390fd5b600083836115659190612113565b9050604051915080825260208201845b8481101561159757600181018701518253600182019150600181019050611575565b5081602001830160405250509392505050565b6115b2611670565b6115e8576040517fd7e6bcf800000000000000000000000000000000000000000000000000000000815260040160405180910390fd5b565b6115f26115aa565b600073ffffffffffffffffffffffffffffffffffffffff168173ffffffffffffffffffffffffffffffffffffffff16036116645760006040517f1e4fbdf700000000000000000000000000000000000000000000000000000000815260040161165b919061196c565b60405180910390fd5b61166d816113d7565b50565b600061167a6114d6565b60000160089054906101000a900460ff16905090565b6040518060800160405280600073ffffffffffffffffffffffffffffffffffffffff16815260200160008152602001600081526020016116ce611714565b81525090565b82602f8101928215611703579160200282015b828111156117025782518255916020019190600101906116e7565b5b5090506117109190611737565b5090565b604051806105e00160405280602f90602082028036833780820191505090505090565b5b80821115611750576000816000905550600101611738565b5090565b6000819050919050565b61176781611754565b82525050565b6000602082019050611782600083018461175e565b92915050565b6000604051905090565b600080fd5b600080fd5b600080fd5b600080fd5b6000601f19601f8301169050919050565b7f4e487b7100000000000000000000000000000000000000000000000000000000600052604160045260246000fd5b6117ef826117a6565b810181811067ffffffffffffffff8211171561180e5761180d6117b7565b5b80604052505050565b6000611821611788565b905061182d82826117e6565b919050565b600067ffffffffffffffff82111561184d5761184c6117b7565b5b611856826117a6565b9050602081019050919050565b82818337600083830152505050565b600061188561188084611832565b611817565b9050828152602081018484840111156118a1576118a06117a1565b5b6118ac848285611863565b509392505050565b600082601f8301126118c9576118c861179c565b5b81356118d9848260208601611872565b91505092915050565b6000602082840312156118f8576118f7611792565b5b600082013567ffffffffffffffff81111561191657611915611797565b5b611922848285016118b4565b91505092915050565b600073ffffffffffffffffffffffffffffffffffffffff82169050919050565b60006119568261192b565b9050919050565b6119668161194b565b82525050565b6000602082019050611981600083018461195d565b92915050565b600060ff82169050919050565b61199d81611987565b81146119a857600080fd5b50565b6000813590506119ba81611994565b92915050565b600080604083850312156119d7576119d6611792565b5b600083013567ffffffffffffffff8111156119f5576119f4611797565b5b611a01858286016118b4565b9250506020611a12858286016119ab565b9150509250929050565b60008115159050919050565b611a3181611a1c565b82525050565b6000602082019050611a4c6000830184611a28565b92915050565b611a5b81611754565b8114611a6657600080fd5b50565b600081359050611a7881611a52565b92915050565b600060208284031215611a9457611a93611792565b5b6000611aa284828501611a69565b91505092915050565b611ab48161194b565b8114611abf57600080fd5b50565b600081359050611ad181611aab565b92915050565b600060208284031215611aed57611aec611792565b5b6000611afb84828501611ac2565b91505092915050565b611b0d8161194b565b82525050565b611b1c81611754565b82525050565b6000602f9050919050565b600081905092915050565b6000819050919050565b6000611b4e8383611b13565b60208301905092915050565b6000602082019050919050565b611b7081611b22565b611b7a8184611b2d565b9250611b8582611b38565b8060005b83811015611bb6578151611b9d8782611b42565b9650611ba883611b5a565b925050600181019050611b89565b505050505050565b61064082016000820151611bd56000850182611b04565b506020820151611be86020850182611b13565b506040820151611bfb6040850182611b13565b506060820151611c0e6060850182611b67565b50505050565b600061064082019050611c2a6000830184611bbe565b92915050565b600080600060608486031215611c4957611c48611792565b5b6000611c5786828701611a69565b9350506020611c6886828701611ac2565b9250506040611c7986828701611a69565b9150509250925092565b600081519050919050565b600081905092915050565b60005b83811015611cb7578082015181840152602081019050611c9c565b60008484015250505050565b6000611cce82611c83565b611cd88185611c8e565b9350611ce8818560208601611c99565b80840191505092915050565b6000611d008284611cc3565b915081905092915050565b600082825260208201905092915050565b7f4e6f2072652d656e7472616e6379000000000000000000000000000000000000600082015250565b6000611d52600e83611d0b565b9150611d5d82611d1c565b602082019050919050565b60006020820190508181036000830152611d8181611d45565b9050919050565b7f77726f6e6720706572696f647300000000000000000000000000000000000000600082015250565b6000611dbe600d83611d0b565b9150611dc982611d88565b602082019050919050565b60006020820190508181036000830152611ded81611db1565b9050919050565b6000604082019050611e09600083018561175e565b611e16602083018461175e565b9392505050565b7f6e6f74206672656520646f6d61696e0000000000000000000000000000000000600082015250565b6000611e53600f83611d0b565b9150611e5e82611e1d565b602082019050919050565b60006020820190508181036000830152611e8281611e46565b9050919050565b7f706172656e7420646f6d61696e20697320667265650000000000000000000000600082015250565b6000611ebf601583611d0b565b9150611eca82611e89565b602082019050919050565b60006020820190508181036000830152611eee81611eb2565b9050919050565b6000606082019050611f0a600083018661175e565b611f17602083018561175e565b611f24604083018461175e565b949350505050565b7f77726f6e67206164647265737300000000000000000000000000000000000000600082015250565b6000611f62600d83611d0b565b9150611f6d82611f2c565b602082019050919050565b60006020820190508181036000830152611f9181611f55565b9050919050565b7f6672656520646f6d61696e000000000000000000000000000000000000000000600082015250565b6000611fce600b83611d0b565b9150611fd982611f98565b602082019050919050565b60006020820190508181036000830152611ffd81611fc1565b9050919050565b7f77726f6e67207061796d656e7420706572696f64000000000000000000000000600082015250565b600061203a601483611d0b565b915061204582612004565b602082019050919050565b600060208201905081810360008301526120698161202d565b9050919050565b6000819050919050565b600067ffffffffffffffff82169050919050565b6000819050919050565b60006120b36120ae6120a984612070565b61208e565b61207a565b9050919050565b6120c381612098565b82525050565b60006020820190506120de60008301846120ba565b92915050565b7f4e487b7100000000000000000000000000000000000000000000000000000000600052601160045260246000fd5b600061211e82611754565b915061212983611754565b9250828203905081811115612141576121406120e4565b5b92915050565b600061215282611754565b91507fffffffffffffffffffffffffffffffffffffffffffffffffffffffffffffffff8203612184576121836120e4565b5b600182019050919050565b600061219a82611754565b91506121a583611754565b92508282019050808211156121bd576121bc6120e4565b5b92915050565b7f77726f6e672073656e6465720000000000000000000000000000000000000000600082015250565b60006121f9600c83611d0b565b9150612204826121c3565b602082019050919050565b60006020820190508181036000830152612228816121ec565b9050919050565b600061223a82611754565b915061224583611754565b925082820261225381611754565b9150828204841483151761226a576122696120e4565b5b5092915050565b7f77726f6e672076616c7565000000000000000000000000000000000000000000600082015250565b60006122a7600b83611d0b565b91506122b282612271565b602082019050919050565b600060208201905081810360008301526122d68161229a565b9050919050565b600081905092915050565b50565b60006122f86000836122dd565b9150612303826122e8565b600082019050919050565b6000612319826122eb565b9150819050919050565b7f6661696c656420746f2073656e64204574686572000000000000000000000000600082015250565b6000612359601483611d0b565b915061236482612323565b602082019050919050565b600060208201905081810360008301526123888161234c565b9050919050565b7f656d70747920646f6d61696e0000000000000000000000000000000000000000600082015250565b60006123c5600c83611d0b565b91506123d08261238f565b602082019050919050565b600060208201905081810360008301526123f4816123b8565b9050919050565b7f496e76616c696420737461727420616e6420656e6420696e6469636573000000600082015250565b6000612431601d83611d0b565b915061243c826123fb565b602082019050919050565b6000602082019050818103600083015261246081612424565b905091905056fea2646970667358221220487f9e15533a604ca623f661e18d446b92d7c7162efae2310112dc3945cc592164736f6c63430008140033",
  "linkReferences": {},
  "deployedLinkReferences": {}
}